{
  "contractName": "main",
  "abi": [
    {
      "inputs": [
        {
          "internalType": "address",
          "name": "",
          "type": "address"
        },
        {
          "internalType": "uint256",
          "name": "",
          "type": "uint256"
        }
      ],
      "name": "books",
      "outputs": [
        {
          "internalType": "string",
          "name": "title",
          "type": "string"
        },
        {
          "internalType": "string",
          "name": "Author",
          "type": "string"
        }
      ],
      "stateMutability": "view",
      "type": "function",
      "constant": true
    },
    {
      "inputs": [
        {
          "internalType": "uint256",
          "name": "",
          "type": "uint256"
        }
      ],
      "name": "names",
      "outputs": [
        {
          "internalType": "string",
          "name": "",
          "type": "string"
        }
      ],
      "stateMutability": "view",
      "type": "function",
      "constant": true
    },
    {
      "inputs": [
        {
          "internalType": "uint256",
          "name": "id_var",
          "type": "uint256"
        },
        {
          "internalType": "string",
          "name": "title_",
          "type": "string"
        },
        {
          "internalType": "string",
          "name": "author_",
          "type": "string"
        }
      ],
      "name": "add_book_info",
      "outputs": [
        {
          "internalType": "bool",
          "name": "",
          "type": "bool"
        }
      ],
      "stateMutability": "payable",
      "type": "function",
      "payable": true
    },
    {
      "inputs": [],
      "name": "test",
      "outputs": [
        {
          "components": [
            {
              "internalType": "string",
              "name": "title",
              "type": "string"
            },
            {
              "internalType": "string",
              "name": "Author",
              "type": "string"
            }
          ],
          "internalType": "struct main.Book[]",
          "name": "",
          "type": "tuple[]"
        }
      ],
      "stateMutability": "nonpayable",
      "type": "function"
    }
  ],
  "bytecode": "0x608060405234801561001057600080fd5b50610bb3806100206000396000f3fe60806040526004361061003f5760003560e01c80634622ab0314610044578063e312b74214610081578063ed097d86146100b1578063f8a8fd6d146100ef575b600080fd5b34801561005057600080fd5b5061006b6004803603810190610066919061075f565b61011a565b6040516100789190610992565b60405180910390f35b61009b60048036038101906100969190610788565b6101ca565b6040516100a89190610977565b60405180910390f35b3480156100bd57600080fd5b506100d860048036038101906100d39190610723565b610295565b6040516100e69291906109b4565b60405180910390f35b3480156100fb57600080fd5b50610104610406565b6040516101119190610955565b60405180910390f35b60006020528060005260406000206000915090508054600181600116156101000203166002900480601f0160208091040260200160405190810160405280929190818152602001828054600181600116156101000203166002900480156101c25780601f10610197576101008083540402835291602001916101c2565b820191906000526020600020905b8154815290600101906020018083116101a557829003601f168201915b505050505081565b6000806040518060400160405280858152602001848152509050600160003373ffffffffffffffffffffffffffffffffffffffff1673ffffffffffffffffffffffffffffffffffffffff16815260200190815260200160002081908060018154018082558091505060019003906000526020600020906002020160009091909190915060008201518160000190805190602001906102699291906105e6565b5060208201518160010190805190602001906102869291906105e6565b50505060019150509392505050565b600160205281600052604060002081815481106102b157600080fd5b906000526020600020906002020160009150915050806000018054600181600116156101000203166002900480601f01602080910402602001604051908101604052809291908181526020018280546001816001161561010002031660029004801561035e5780601f106103335761010080835404028352916020019161035e565b820191906000526020600020905b81548152906001019060200180831161034157829003601f168201915b505050505090806001018054600181600116156101000203166002900480601f0160208091040260200160405190810160405280929190818152602001828054600181600116156101000203166002900480156103fc5780601f106103d1576101008083540402835291602001916103fc565b820191906000526020600020905b8154815290600101906020018083116103df57829003601f168201915b5050505050905082565b6060600160003373ffffffffffffffffffffffffffffffffffffffff1673ffffffffffffffffffffffffffffffffffffffff168152602001908152602001600020805480602002602001604051908101604052809291908181526020016000905b828210156105dd5783829060005260206000209060020201604051806040016040529081600082018054600181600116156101000203166002900480601f0160208091040260200160405190810160405280929190818152602001828054600181600116156101000203166002900480156105235780601f106104f857610100808354040283529160200191610523565b820191906000526020600020905b81548152906001019060200180831161050657829003601f168201915b50505050508152602001600182018054600181600116156101000203166002900480601f0160208091040260200160405190810160405280929190818152602001828054600181600116156101000203166002900480156105c55780601f1061059a576101008083540402835291602001916105c5565b820191906000526020600020905b8154815290600101906020018083116105a857829003601f168201915b50505050508152505081526020019060010190610467565b50505050905090565b828054600181600116156101000203166002900490600052602060002090601f01602090048101928261061c5760008555610663565b82601f1061063557805160ff1916838001178555610663565b82800160010185558215610663579182015b82811115610662578251825591602001919060010190610647565b5b5090506106709190610674565b5090565b5b8082111561068d576000816000905550600101610675565b5090565b60006106a461069f84610a1c565b6109eb565b9050828152602081018484840111156106bc57600080fd5b6106c7848285610afa565b509392505050565b6000813590506106de81610b4f565b92915050565b600082601f8301126106f557600080fd5b8135610705848260208601610691565b91505092915050565b60008135905061071d81610b66565b92915050565b6000806040838503121561073657600080fd5b6000610744858286016106cf565b92505060206107558582860161070e565b9150509250929050565b60006020828403121561077157600080fd5b600061077f8482850161070e565b91505092915050565b60008060006060848603121561079d57600080fd5b60006107ab8682870161070e565b935050602084013567ffffffffffffffff8111156107c857600080fd5b6107d4868287016106e4565b925050604084013567ffffffffffffffff8111156107f157600080fd5b6107fd868287016106e4565b9150509250925092565b60006108138383610911565b905092915050565b600061082682610a5c565b6108308185610a7f565b93508360208202850161084285610a4c565b8060005b8581101561087e578484038952815161085f8582610807565b945061086a83610a72565b925060208a01995050600181019050610846565b50829750879550505050505092915050565b61089981610ac4565b82525050565b60006108aa82610a67565b6108b48185610a90565b93506108c4818560208601610b09565b6108cd81610b3e565b840191505092915050565b60006108e382610a67565b6108ed8185610aa1565b93506108fd818560208601610b09565b61090681610b3e565b840191505092915050565b6000604083016000830151848203600086015261092e828261089f565b91505060208301518482036020860152610948828261089f565b9150508091505092915050565b6000602082019050818103600083015261096f818461081b565b905092915050565b600060208201905061098c6000830184610890565b92915050565b600060208201905081810360008301526109ac81846108d8565b905092915050565b600060408201905081810360008301526109ce81856108d8565b905081810360208301526109e281846108d8565b90509392505050565b6000604051905081810181811067ffffffffffffffff82111715610a1257610a11610b3c565b5b8060405250919050565b600067ffffffffffffffff821115610a3757610a36610b3c565b5b601f19601f8301169050602081019050919050565b6000819050602082019050919050565b600081519050919050565b600081519050919050565b6000602082019050919050565b600082825260208201905092915050565b600082825260208201905092915050565b600082825260208201905092915050565b6000610abd82610ad0565b9050919050565b60008115159050919050565b600073ffffffffffffffffffffffffffffffffffffffff82169050919050565b6000819050919050565b82818337600083830152505050565b60005b83811015610b27578082015181840152602081019050610b0c565b83811115610b36576000848401525b50505050565bfe5b6000601f19601f8301169050919050565b610b5881610ab2565b8114610b6357600080fd5b50565b610b6f81610af0565b8114610b7a57600080fd5b5056fea2646970667358221220fd16919ebaf7d3a905f1ea45562bd02a0d758a422e7457fabd9647c81dd7c94364736f6c63430007060033",
  "immutableReferences": {},
  "source": "pragma solidity ^0.7.6;\npragma abicoder v2;\n\ncontract main {\n    mapping (uint=>string) public names;\n    mapping (address=>Book[]) public books;\n\n    \n    struct Book{\n        string title;\n        string Author;\n    }\n\n    function add_book_info(uint id_var, string memory title_, string memory author_) public payable returns (bool)\n    {\n        Book memory output = Book({title:title_, Author:author_});\n        books[msg.sender].push(output);\n        return true;\n    }\n\n    function test() public returns (Book[] memory)\n    {\n        return books[msg.sender];\n    }\n}",
  "sourcePath": "/Users/hanhojung/Documents/GitHub/solidity-learning/ex1_subcurrency/contracts/main.sol",
  "compiler": {
    "name": "solc",
    "version": "0.7.6+commit.7338295f.Emscripten.clang"
  },
  "schemaVersion": "3.4.1",
  "updatedAt": "2021-07-28T07:10:29.109Z",
  "networkType": "ethereum",
  "devdoc": {
    "kind": "dev",
    "methods": {},
    "version": 1
  },
  "userdoc": {
    "kind": "user",
    "methods": {},
    "version": 1
  }
}